:020000040000fa
:080000000002040000000000f2
:020000040000fa
:040008008a03000067
:020000040000fa
:04000c008a03000063
:020000040000fa
:040010008a0300005f
:020000040000fa
:040014008a0300005b
:020000040000fa
:040018008a03000057
:020000040000fa
:04001c008a03000053
:020000040000fa
:040020008a0300004f
:020000040000fa
:040024008a0300004b
:020000040000fa
:040028008a03000047
:020000040000fa
:04002c008a03000043
:020000040000fa
:040030008a0300003f
:020000040000fa
:04003400d4020000f2
:020000040000fa
:040038008a03000037
:020000040000fa
:04003c008a03000033
:020000040000fa
:040040008a0300002f
:020000040000fa
:040044008a0300002b
:020000040000fa
:040048008a03000027
:020000040000fa
:04004c008a03000023
:020000040000fa
:040050008a0300001f
:020000040000fa
:040054008a0300001b
:020000040000fa
:040058008a03000017
:020000040000fa
:04005c008a03000013
:020000040000fa
:040060008a0300000f
:020000040000fa
:040064008a0300000b
:020000040000fa
:040068008a03000007
:020000040000fa
:04006c008a03000003
:020000040000fa
:040070008a030000ff
:020000040000fa
:040074008a030000fb
:020000040000fa
:040078008a030000f7
:020000040000fa
:04007c008a030000f3
:020000040000fa
:040080008a030000ef
:020000040000fa
:040084008a030000eb
:020000040000fa
:040088008a030000e7
:020000040000fa
:04008c008a030000e3
:020000040000fa
:040090008a030000df
:020000040000fa
:040094008a030000db
:020000040000fa
:040098008a030000d7
:020000040000fa
:04009c008a030000d3
:020000040000fa
:0400a0008a030000cf
:020000040000fa
:0400a4008a030000cb
:020000040000fa
:0400a8008a030000c7
:020000040000fa
:0400ac008a030000c3
:020000040000fa
:0400b0008a030000bf
:020000040000fa
:0400b4008a030000bb
:020000040000fa
:0400b8008a030000b7
:020000040000fa
:0400bc008a030000b3
:020000040000fa
:0400c0008a030000af
:020000040000fa
:0400c4008a030000ab
:020000040000fa
:0400c8008a030000a7
:020000040000fa
:0400cc008a030000a3
:020000040000fa
:0400d0008a0300009f
:020000040000fa
:0400d4008a0300009b
:020000040000fa
:0400d8008a03000097
:020000040000fa
:0400dc008a03000093
:020000040000fa
:0400e0008a0300008f
:020000040000fa
:0400e4008a0300008b
:020000040000fa
:0400e8008a03000087
:020000040000fa
:0400ec008a03000083
:020000040000fa
:0400f0008a0300007f
:020000040000fa
:0400f4008a0300007b
:020000040000fa
:0400f8008a03000077
:020000040000fa
:0400fc008a03000073
:020000040000fa
:040100008a0300006e
:020000040000fa
:040104008a0300006a
:020000040000fa
:040108008a03000066
:020000040000fa
:04010c008a03000062
:020000040000fa
:040110008a0300005e
:020000040000fa
:040114008a0300005a
:020000040000fa
:040118008a03000056
:020000040000fa
:04011c008a03000052
:020000040000fa
:040120008a0300004e
:020000040000fa
:040124008a0300004a
:020000040000fa
:040128008a03000046
:020000040000fa
:04012c008a03000042
:020000040000fa
:040130008a0300003e
:020000040000fa
:040134008a0300003a
:020000040000fa
:040208008a03000065
:020000040000fa
:04020c008a03000061
:020000040000fa
:040210008a0300005d
:020000040000fa
:040214008a03000059
:020000040000fa
:040218008a03000055
:020000040000fa
:04021c008a03000051
:020000040000fa
:040220008a0300004d
:020000040000fa
:040224008a03000049
:020000040000fa
:040228008a03000045
:020000040000fa
:04022c008a03000041
:020000040000fa
:040230008a0300003d
:020000040000fa
:04023400d4020000f0
:020000040000fa
:040238008a03000035
:020000040000fa
:04023c008a03000031
:020000040000fa
:040240008a0300002d
:020000040000fa
:040244008a03000029
:020000040000fa
:040248008a03000025
:020000040000fa
:04024c008a03000021
:020000040000fa
:040250008a0300001d
:020000040000fa
:040254008a03000019
:020000040000fa
:040258008a03000015
:020000040000fa
:04025c008a03000011
:020000040000fa
:040260008a0300000d
:020000040000fa
:040264008a03000009
:020000040000fa
:040268008a03000005
:020000040000fa
:04026c008a03000001
:020000040000fa
:040270008a030000fd
:020000040000fa
:040274008a030000f9
:020000040000fa
:040278008a030000f5
:020000040000fa
:04027c008a030000f1
:020000040000fa
:040280008a030000ed
:020000040000fa
:040284008a030000e9
:020000040000fa
:040288008a030000e5
:020000040000fa
:04028c008a030000e1
:020000040000fa
:040290008a030000dd
:020000040000fa
:040294008a030000d9
:020000040000fa
:040298008a030000d5
:020000040000fa
:04029c008a030000d1
:020000040000fa
:0402a0008a030000cd
:020000040000fa
:0402a4008a030000c9
:020000040000fa
:0402a8008a030000c5
:020000040000fa
:0402ac008a030000c1
:020000040000fa
:0402b0008a030000bd
:020000040000fa
:0402b4008a030000b9
:020000040000fa
:0402b8008a030000b5
:020000040000fa
:0402bc008a030000b1
:020000040000fa
:0402c0008a030000ad
:020000040000fa
:0402c4008a030000a9
:020000040000fa
:0402c8008a030000a5
:020000040000fa
:0402cc008a030000a1
:020000040000fa
:0402d0008a0300009d
:020000040000fa
:0402d4008a03000099
:020000040000fa
:0402d8008a03000095
:020000040000fa
:0402dc008a03000091
:020000040000fa
:0402e0008a0300008d
:020000040000fa
:0402e4008a03000089
:020000040000fa
:0402e8008a03000085
:020000040000fa
:0402ec008a03000081
:020000040000fa
:0402f0008a0300007d
:020000040000fa
:0402f4008a03000079
:020000040000fa
:0402f8008a03000075
:020000040000fa
:0402fc008a03000071
:020000040000fa
:040300008a0300006c
:020000040000fa
:040304008a03000068
:020000040000fa
:040308008a03000064
:020000040000fa
:04030c008a03000060
:020000040000fa
:040310008a0300005c
:020000040000fa
:040314008a03000058
:020000040000fa
:040318008a03000054
:020000040000fa
:04031c008a03000050
:020000040000fa
:040320008a0300004c
:020000040000fa
:040324008a03000048
:020000040000fa
:040328008a03000044
:020000040000fa
:04032c008a03000040
:020000040000fa
:040330008a0300003c
:020000040000fa
:040334008a03000038
:020000040000fa
:10040000ef9620000e7f22000e0188000000000001
:10041000000020000000e000020032000001200087
:100420002002880014000700bc0007000000e00064
:1004300003003a002057200001002000020037008e
:100440000000200001002000810f70000100320038
:1004500014000700000020000000e000020032004d
:10046000000002000000000058050200000000002b
:100470000040da000000fe004440a9000000200017
:100480000000e0000300320000002000a00188000e
:100490004440a800000006008a1f78008b1f7800e7
:1004a0000000060091018800800478000000eb0045
:1004b0001a003700e284440032a0b4009905ba0063
:1004c000e284440032a0b4009906ba00e2844400f9
:1004d00032a0b4000006eb00476fde00fd07b2005b
:1004e000636ce10003003a00ebff07000000eb0043
:1004f0000a003700606ce10004003a00005deb0088
:100500008b05e900fdff3e00040037006168e10053
:10051000010032000086eb000b00070019c7ba008b
:100520001905ba000e04e00003003a000a00e000da
:10053000e0ff3a0000000600fe07b2009e018800be
:100540008a047800f5ff3700395dba008b05e900b1
:100550000c003200295dba008b05e900080032006a
:100560000c00e00003003a00e284440032a0b40032
:10057000f5ff370019ddba008b05e900faff3a00f4
:100580008904e800e184440032a0b40000000600c1
:100590009204040000000000ac040400000000000d
:1005a000c804040000000000801f7800811f78004c
:1005b000821f7800831f7800841f7800851f7800d1
:1005c000861f7800871f7800881f7800891f7800b1
:1005d0008a1f78008b1f78008c1f78008d1f780091
:1005e0008e1f7800b0018000801f7800900180008d
:1005f000801f7800a0018000801f7800200280000a
:10060000801f78001f4088008460a90000c8bf00d8
:100610008080fb0012408000800420000088b90028
:1006200080007800a084200000804000020878004c
:1006300000c8bf008080fb00800420000088b90053
:100640008000780080802000008040008000eb0067
:1006500001087800e200070000e8b70000c8bf000a
:100660008080fb00800420000088b9000000780032
:100670006104200080804000408020000080400015
:10068000100078001040880000c8bf008080fb0088
:10069000800420000088b90080007800808020005d
:1006a0000080400011002000010878001f408000f9
:1006b0004f007800200288004f007800a0018800d9
:1006c0004f007800900188004f007800b00188004a
:1006d0004f077800cf0678004f067800cf057800e6
:1006e0004f057800cf0478004f047800cf037800de
:1006f0004f037800cf0278004f027800cf017800d6
:100700004f017800cf0078004f00780000400600cd
:10071000004006000040da000000fe000000050076
:020000040000fa
:100720000000fa00c09620008040eb0001487800ed
:10073000cd000700a40007000080fa0000000600ba
:100740000000fa00504280001040880005e1a80037
:100750001f4080004f007800200288004f00780082
:10076000a00188004f007800900188004f007800b9
:10077000b00188004f077800cf0678004f06780058
:10078000cf0578004f057800cf0478004f0478003b
:10079000cf0378004f037800cf0278004f02780033
:1007a000cf0178004f017800cf0078004f0078002b
:1007b000004006000080fa00000006000600fa0073
:1007c0001007980041479800c0962000104078001c
:1007d0008080fb00800420000088b9008000780041
:1007e00040802000008f4000c0962000104078001c
:1007f0008040e8001e007800014878001e00780064
:100800009e009000110098001e0078004e4190005c
:10081000124098001e0078008000eb002100980034
:100820001e017800e60041001e007800312098008b
:100830001e00780007000700c096200010407800d6
:100840008040e800c0962000014878000080fa004f
:10085000000006000a00fa00400798004e009000d1
:10086000b0209000010f78004e0090001000900022
:10087000200798000000eb00300798001e00780069
:10088000ae009000010878001e8fe8001e0078007e
:10089000be009000010878001e8fe8000000eb0009
:1008a00010079800070037001e0078008000eb005a
:1008b000010878001e8fe8001e0090000000e8008c
:1008c000100798001e009000ee0f5000f6ff340055
:1008d0001e0078008000eb00010878001e8fe80001
:1008e0001e0078008000eb00010878001e8fe800f1
:1008f0001e0078008000eb00010878001e8fe800e1
:100900001e0078008000eb00010878001e8fe800d0
:100910004e0090009e007800312098000080fa0080
:10092000000006000000fa00e01680000040780099
:10093000614060000004a200614060000080fb0094
:1009400061006000e11680000100a100010070005c
:10095000e0168800f4ff37000000fa00e01680007f
:100960000000d100614060000004a200614060000e
:100970000080fb006100600000004000e116800084
:100980000110a10001007000e0168800f3ff37009d
:100990000000fa00e01680004200de0061406000c6
:1009a0000004a200614060000080fb006100600064
:1009b0004200dd00e11680000120a100010070006e
:1009c000e0168800f3ff37000000fa00d802a90003
:1009d000d822a900d842a9000080fa000000060031
:1009e0000000fa00020007000080fa000000060084
:1009f0000200fa000180200091407800014f780049
:100a00001e80fb008000e800c096200010407800a7
:100a10000080fb0000017800110009008200d8006e
:100a20008000fd00004f78009e80fb0080042000c5
:100a30000088b90000007800e400400040802000f9
:100a400000804000100078000000e000ecff3a0059
:100a50001e4078000080fa00000006000000fa0046
:100a60000080fa00000006000000fa000421a9003e
:100a700021088000f0fc2f00008060000040a000f2
:100a8000200888008460a9009460a80021058000e7
:100a9000f0ff28000080600000e0a0002005880032
:100aa000f07c2000100888000080fa00000006009a
:100ab0000000fa001aff070051c0b30020492000cf
:100ac0003eff070051c0b300c04a20003bff0700b3
:100ad00051c0b300804c200038ff070018ff07000a
:040ae000ffff3700dd
:020000040000fa
:100ae400040800006a010000000000000008000083
:0c0af400040000000000000000000000f2
:00000001FF
