:020000040000fa
:080000000002040000000000f2
:020000040000fa
:0400080004030000ed
:020000040000fa
:04000c0004030000e9
:020000040000fa
:0400100004030000e5
:020000040000fa
:0400140004030000e1
:020000040000fa
:0400180004030000dd
:020000040000fa
:04001c0004030000d9
:020000040000fa
:0400200004030000d5
:020000040000fa
:0400240004030000d1
:020000040000fa
:0400280004030000cd
:020000040000fa
:04002c0004030000c9
:020000040000fa
:0400300004030000c5
:020000040000fa
:04003400d4020000f2
:020000040000fa
:0400380004030000bd
:020000040000fa
:04003c0004030000b9
:020000040000fa
:0400400004030000b5
:020000040000fa
:0400440004030000b1
:020000040000fa
:0400480004030000ad
:020000040000fa
:04004c0004030000a9
:020000040000fa
:0400500004030000a5
:020000040000fa
:0400540004030000a1
:020000040000fa
:04005800040300009d
:020000040000fa
:04005c000403000099
:020000040000fa
:040060000403000095
:020000040000fa
:040064000403000091
:020000040000fa
:04006800040300008d
:020000040000fa
:04006c000403000089
:020000040000fa
:040070000403000085
:020000040000fa
:040074000403000081
:020000040000fa
:04007800040300007d
:020000040000fa
:04007c000403000079
:020000040000fa
:040080000403000075
:020000040000fa
:040084000403000071
:020000040000fa
:04008800040300006d
:020000040000fa
:04008c000403000069
:020000040000fa
:040090000403000065
:020000040000fa
:040094000403000061
:020000040000fa
:04009800040300005d
:020000040000fa
:04009c000403000059
:020000040000fa
:0400a0000403000055
:020000040000fa
:0400a4000403000051
:020000040000fa
:0400a800040300004d
:020000040000fa
:0400ac000403000049
:020000040000fa
:0400b0000403000045
:020000040000fa
:0400b4000403000041
:020000040000fa
:0400b800040300003d
:020000040000fa
:0400bc000403000039
:020000040000fa
:0400c0000403000035
:020000040000fa
:0400c4000403000031
:020000040000fa
:0400c800040300002d
:020000040000fa
:0400cc000403000029
:020000040000fa
:0400d0000403000025
:020000040000fa
:0400d4000403000021
:020000040000fa
:0400d800040300001d
:020000040000fa
:0400dc000403000019
:020000040000fa
:0400e0000403000015
:020000040000fa
:0400e4000403000011
:020000040000fa
:0400e800040300000d
:020000040000fa
:0400ec000403000009
:020000040000fa
:0400f0000403000005
:020000040000fa
:0400f4000403000001
:020000040000fa
:0400f80004030000fd
:020000040000fa
:0400fc0004030000f9
:020000040000fa
:0401000004030000f4
:020000040000fa
:0401040004030000f0
:020000040000fa
:0401080004030000ec
:020000040000fa
:04010c0004030000e8
:020000040000fa
:0401100004030000e4
:020000040000fa
:0401140004030000e0
:020000040000fa
:0401180004030000dc
:020000040000fa
:04011c0004030000d8
:020000040000fa
:0401200004030000d4
:020000040000fa
:0401240004030000d0
:020000040000fa
:0401280004030000cc
:020000040000fa
:04012c0004030000c8
:020000040000fa
:0401300004030000c4
:020000040000fa
:0401340004030000c0
:020000040000fa
:0402080004030000eb
:020000040000fa
:04020c0004030000e7
:020000040000fa
:0402100004030000e3
:020000040000fa
:0402140004030000df
:020000040000fa
:0402180004030000db
:020000040000fa
:04021c0004030000d7
:020000040000fa
:0402200004030000d3
:020000040000fa
:0402240004030000cf
:020000040000fa
:0402280004030000cb
:020000040000fa
:04022c0004030000c7
:020000040000fa
:0402300004030000c3
:020000040000fa
:04023400d4020000f0
:020000040000fa
:0402380004030000bb
:020000040000fa
:04023c0004030000b7
:020000040000fa
:0402400004030000b3
:020000040000fa
:0402440004030000af
:020000040000fa
:0402480004030000ab
:020000040000fa
:04024c0004030000a7
:020000040000fa
:0402500004030000a3
:020000040000fa
:04025400040300009f
:020000040000fa
:04025800040300009b
:020000040000fa
:04025c000403000097
:020000040000fa
:040260000403000093
:020000040000fa
:04026400040300008f
:020000040000fa
:04026800040300008b
:020000040000fa
:04026c000403000087
:020000040000fa
:040270000403000083
:020000040000fa
:04027400040300007f
:020000040000fa
:04027800040300007b
:020000040000fa
:04027c000403000077
:020000040000fa
:040280000403000073
:020000040000fa
:04028400040300006f
:020000040000fa
:04028800040300006b
:020000040000fa
:04028c000403000067
:020000040000fa
:040290000403000063
:020000040000fa
:04029400040300005f
:020000040000fa
:04029800040300005b
:020000040000fa
:04029c000403000057
:020000040000fa
:0402a0000403000053
:020000040000fa
:0402a400040300004f
:020000040000fa
:0402a800040300004b
:020000040000fa
:0402ac000403000047
:020000040000fa
:0402b0000403000043
:020000040000fa
:0402b400040300003f
:020000040000fa
:0402b800040300003b
:020000040000fa
:0402bc000403000037
:020000040000fa
:0402c0000403000033
:020000040000fa
:0402c400040300002f
:020000040000fa
:0402c800040300002b
:020000040000fa
:0402cc000403000027
:020000040000fa
:0402d0000403000023
:020000040000fa
:0402d400040300001f
:020000040000fa
:0402d800040300001b
:020000040000fa
:0402dc000403000017
:020000040000fa
:0402e0000403000013
:020000040000fa
:0402e400040300000f
:020000040000fa
:0402e800040300000b
:020000040000fa
:0402ec000403000007
:020000040000fa
:0402f0000403000003
:020000040000fa
:0402f40004030000ff
:020000040000fa
:0402f80004030000fb
:020000040000fa
:0402fc0004030000f7
:020000040000fa
:0403000004030000f2
:020000040000fa
:0403040004030000ee
:020000040000fa
:0403080004030000ea
:020000040000fa
:04030c0004030000e6
:020000040000fa
:0403100004030000e2
:020000040000fa
:0403140004030000de
:020000040000fa
:0403180004030000da
:020000040000fa
:04031c0004030000d6
:020000040000fa
:0403200004030000d2
:020000040000fa
:0403240004030000ce
:020000040000fa
:0403280004030000ca
:020000040000fa
:04032c0004030000c6
:020000040000fa
:0403300004030000c2
:020000040000fa
:0403340004030000be
:020000040000fa
:100400008f8120000e7f22000e0188000000000076
:10041000000020000000e000020032000001200087
:100420002002880014000700790007000000e000a7
:1004300003003a00005020000100200002003700b5
:100440000000200001002000810f70000100320038
:1004500014000700000020000000e000020032004d
:1004600000000200000000000a030200000000007b
:100470000040da000000fe004440a9000000200017
:100480000000e0000300320000002000a00188000e
:100490004440a800000006008a1f78008b1f7800e7
:1004a0000000060091018800800478000000eb0045
:1004b0001a003700e284440032a0b4009905ba0063
:1004c000e284440032a0b4009906ba00e2844400f9
:1004d00032a0b4000006eb00476fde00fd07b2005b
:1004e000636ce10003003a00ebff07000000eb0043
:1004f0000a003700606ce10004003a00005deb0088
:100500008b05e900fdff3e00040037006168e10053
:10051000010032000086eb000b00070019c7ba008b
:100520001905ba000e04e00003003a000a00e000da
:10053000e0ff3a0000000600fe07b2009e018800be
:100540008a047800f5ff3700395dba008b05e900b1
:100550000c003200295dba008b05e900080032006a
:100560000c00e00003003a00e284440032a0b40032
:10057000f5ff370019ddba008b05e900faff3a00f4
:100580008904e800e184440032a0b40000000600c1
:100590007e030400000000009a0304000000000035
:1005a000b8030400000000003600f800809fbe0081
:1005b000829fbe00849fbe00869fbe000000fa009e
:1005c0008460a900104080000000e900104088000d
:1005d000104080000000e00004003a00ec0007003a
:1005e0000040880040062000104088000080fa008b
:1005f0004f03be004f02be004f01be004f00be00c1
:100600003600f900004006000040da000000fe005d
:0406100000000500e1
:020000040000fa
:100614000000fa00310007001e000700e037200048
:100624000001eb0080007800500020005e0007000d
:10063400a03920000001eb00800078006000200059
:1006440059000700803b20000001eb008000780087
:10065400300020005400070005e1a800004080009d
:100664000000e00002003d0000000000fbff370036
:10067400004080006600b90000007800e4004000fb
:10068400608020000080400010007800000001001d
:10069400f2ff37000000fa000421a90021088000bd
:1006a400f0fc2f00008060000040a00020088800bb
:1006b4008460a9009460a80021058000f0ff280050
:1006c4000080600000e0a00020058800f07c20008d
:1006d400100888000080fa00000006000000fa00fc
:1006e400d802a900d822a900d842a900dec2a800d5
:1006f4000080fa00000006000000fa00e016800006
:1007040000407800614060000004a2006140600085
:100714000080fb0061006000e11680000100a10080
:1007240001007000e01688000080fa000000060056
:100734000000fa00e01680000000d1006140600073
:100744000004a200614060000080fb0061006000c2
:1007540000004000e11680000110a10001007000bb
:10076400e01688000080fa00000006000000fa008d
:10077400e01680004200de00614060000004a20038
:10078400614060000080fb00610060004200dd0009
:10079400e11680000120a10001007000e01688002d
:1007a4000080fa00000006000600fa00000f78003e
:1007b4001107980022079800204080006600b900c5
:1007c400800078008080200000804000ae0090000f
:1007d40001087800204080006600b900800078009d
:1007e40060802000008040001e08780022408000c5
:1007f4006610b90080007800a080200000804000ce
:100804009e009000010878000200e8002040880063
:100814000080fa00000006000a00fa000000eb0065
:10082400000f78003b0037001e00e8001007980016
:10083400330037001e0090006600b9008000780085
:100844006080200000804000100178001e007800c5
:100854006600b900800078006080200000804000bd
:1008640010007800800f5100220036001e00900016
:100874006600b9008000780060802000008040009d
:100884001001be002207980033079800a0019000d1
:10089400430798001e0090006600b90080007800ad
:1008a40060802000008140001e0078006600b900ce
:1008b40080007800608020000080400030197800bb
:1008c40020117800a0009000210198001e007800fb
:1008d4006600b9008000780060802000008040003d
:1008e4002e019000be0190000288be00ce0190004f
:1008f400230098001e0090000000e80010079800f4
:10090400204080009e009000808f5000c9ff350079
:100914001e0fe800204080009e007800808f500069
:10092400c1ff35000080fa00000006000200fa0052
:10093400b9ff07000000eb00000f78000c0037003f
:100944001e0078006600b900000078008080e8008e
:100954006080200000804000100078000000e0006b
:1009640002003a001e007800060037001e0fe8005f
:10097400204080009e007800808f5000f0ff3500fa
:100984000080eb000080fa00000006000200fa007c
:1009940001408000010f78009e00e80020408000a4
:1009a40000017800110009008200d8008000fd00d9
:1009b400000f78001e0078006600b900000078007f
:1009c4008080e800608020000080400010007800f3
:1009d4000000e00002003a001e0078000500370025
:1009e400004080009e007800808f5000eaff3a00ab
:0c09f4000080eb000080fa00000006000c
:020000040000fa
:100a000006080000120000000000000004080000ba
:100a100002000000000000000008000004000000c8
:100a200002000000ffff6400000000000000000062
:00000001FF
